:020000040800F2
:100000006808002029020008954C000829480008CB
:10001000914C0008C5050008914F00080000000041
:10002000000000000000000000000000094D000872
:10003000C905000800000000054D0008614D0008DA
:10004000430200084302000843020008430200087C
:10005000430200084302000843020008430200086C
:10006000430200084302000843020008430200085C
:10007000430200084302000843020008430200084C
:10008000430200084302000843020008430200083C
:10009000430200084302000843020008430200082C
:1000A000430200084302000843020008430200081C
:1000B0004302000843020008000000004302000859
:1000C0004302000800000000000000004302000896
:1000D0000000000043020008430200084302000839
:1000E0004302000843020008000000000000000076
:1000F0000000000000000000000000000000000000
:1001000000000000000000000000000000000000EF
:100110000000000000000000430200084302000845
:1001200000000000000000000000000000000000CF
:1001300000000000000000000000000000000000BF
:1001400043020008430200080000000043020008C8
:100150001D3C000843020008430200084302000857
:1001600043020008430200080000000000000000F5
:10017000000000000000000000000000000000007F
:10018000000000004302000800F002F800F03CF814
:100190000AA090E8000C82448344AAF10107DA45E2
:1001A00001D100F031F8AFF2090EBAE80F0013F0F8
:1001B000010F18BFFB1A43F0010318470059000054
:1001C00020590000103A24BF78C878C1FAD85207E5
:1001D00024BF30C830C144BF04680C6070470000C1
:1001E0000023002400250026103A28BF78C1FBD840
:1001F000520728BF30C148BF0B6070471FB505F0DC
:1002000038FC1FBD10B510BD00F0D0F81146FFF747
:10021000F5FF05F0E9FB00F0EEF803B4FFF7F2FF9D
:1002200003BC00F0F5F80000094880470948004782
:10023000FEE7FEE7FEE7FEE7FEE7FEE7FEE7FEE796
:10024000FEE7FEE704480549054A064B70470000F3
:10025000154E000889010008680200206808002087
:10026000680400206804002053EA020C00F0698052
:100270002DE9F04B4FF00006002B1FBFB3FA83F5BA
:1002800003FA05F424FA05F65E4012BF1643B2FAEB
:1002900082F502FA05F4C5F120051EBF22FA05FC1D
:1002A00044EA0C04203556EA044C4FEA144418BFC3
:1002B000641C4FF000084FF00009904271EB030CF2
:1002C00039D3002919BFB1FA81F701FA07F6B0FA5C
:1002D00080F700FA07F6C7F120071EBF20FA07FCD7
:1002E00046EA0C062037B6FBF4FCA7EB0507103FE7
:1002F00007F01F0BCBF120062CFA06F60CFA0BFBCD
:1003000044BFB3460026202FA4BF5E464FF0000B2B
:100310005BEA060C08BF4FF0010B19EB0B0948EB29
:100320000608ABFB027C06FB02CC0BFB03CCC01B1C
:1003300071EB0C01C1E70B46024641464846BDE859
:10034000F08B13B5084318BF4FF0FF300146AFF3F1
:100350000080BDE81C4070474FF0000200B5134616
:1003600094469646203922BFA0E80C50A0E80C50D5
:10037000B1F12001BFF4F7AF090728BFA0E80C5086
:1003800048BF0CC05DF804EB890028BF40F8042B7F
:1003900008BF704748BF20F8022B11F0804F18BFEC
:1003A00000F8012B7047704770477047754600F0A2
:1003B0002BF8AE4605006946534620F007008546F7
:1003C00018B020B5FFF73EFFBDE820404FF0000613
:1003D0004FF000074FF000084FF0000BAC46ACE8C0
:1003E000C009ACE8C009ACE8C009ACE8C00921F01C
:1003F00007018D46704710B50446AFF300802046D4
:10040000BDE81040FFF709BF0048704728000020F2
:1004100001491820ABBEFEE726000200704700002D
:1004200080B584B002900020019002990968896823
:1004300001F003010129009005D1FFE7029800684F
:1004400000680090FFE70098C00700284BD0FFE746
:1004500002980068806800F00D0001280DD1FFE7C8
:10046000FFE702980168886840F0020088600298FF
:10047000016803200860FFE70DE00299086C40F076
:10048000100008640299486C40F0010048640120A3
:100490008DF80F002BE001F087F90190FFE702983B
:1004A00000688068C007E8B1FFE701F07DF90199B5
:1004B000401A032815D3FFE7029800688068C00738
:1004C00070B1FFE70299086C40F0100008640299CF
:1004D000486C40F00100486401208DF80F0006E0F0
:1004E000FFE7DCE7FFE700208DF80F00FFE79DF84E
:1004F0000F0004B080BD000080B584B002900020E1
:10050000019002990968896801F0030101290090AE
:1005100005D1FFE70298006800680090FFE70098A7
:10052000C007002845D1FFE70298006880683F2196
:10053000C8F2000108420ED0FFE70299086C40F0B3
:10054000100008640299486C40F0010048640120E2
:100550008DF80F0031E002980168886840F00100D2
:10056000886001F021F90190FFE7029800680068B7
:10057000C007E8B9FFE701F017F90199401A03280D
:1005800015D3FFE7029800680068C00770B9FFE75D
:100590000299086C40F0100008640299486C40F021
:1005A0000100486401208DF80F0006E0FFE7DCE75A
:1005B000FFE700208DF80F00FFE79DF80F0004B063
:1005C00080BD0000FFE7FEE77047000081B0EFF359
:1005D000108072B60090FFE7FEE7000080B586B09D
:1005E0000490039100208DF80B00FFE7049890F829
:1005F0003C00012804D1FFE702208DF8170068E0D5
:100600000499012081F83C00FFE7FFE70498FFF719
:1006100007FF8DF80B009DF80B0000284ED1FFE777
:1006200004990120086404980168886820F08040DB
:1006300088600398012807D1FFE70498016888685B
:1006400040F080408860FFE704980168886840F0C7
:100650000040886001F0A8F80190FFE70498006866
:100660008068C00F08B3FFE701F09EF80199401AB7
:100670000B2819D3FFE7049800688068C00F90B179
:10068000FFE70498006C40F0100020F0020004998D
:100690000864FFE70499002081F83C00FFE701208F
:1006A0008DF8170015E0FFE7D8E70498006C40F0DC
:1006B000010020F0020004990864FFE7FFE70499B5
:1006C000002081F83C00FFE79DF80B008DF8170033
:1006D000FFE79DF8170006B080BD0000A0B01E9097
:1006E0001D9100208DF87300059004901E980069FC
:1006F00008B1FFE7FFE71D98C068012801D0FFE7B8
:1007000000E0FFE7FFE71E9890F83C00012804D1C5
:10071000FFE702208DF87F00F2E21E99012081F8A8
:100720003C00FFE7FFE71E98006928B1FFE71D982E
:100730008069012837D1FFE71D984068012828D13A
:10074000FFE71D98006A01280BD0FFE71D990A6892
:10075000086A496A40EA0220014304980843049069
:1007600006E01D980168049840EA01200490FFE724
:100770001E980068C06C42F20001C8F208210840CF
:10078000049908431E990968C86404981E998864EE
:1007900008E01E99086C40F02000086401208DF8E4
:1007A0007300FFE74FE01E98C06C10BBFFE71D9879
:1007B00080691E99C8641E99002088641D98006A8B
:1007C00001280DD0FFE71D9988690A6A496A013836
:1007D000104340EA01021E99886C1043886407E0C8
:1007E0001D988069421E1E99886C10438864FFE73B
:1007F000FFE71E99886C1D9B1A685B6803EB430C2E
:10080000022303EB4C034FF01F0C0CFA03FC20EA0D
:100810000C009A40104388641E99C86C0138C86463
:100820001E98C06C70B9FFE71E980068C06C42F259
:100830000001C8F2082108401E9A1168926C10430A
:10084000C864FFE7FFE71E980068806800F00801B1
:100850000020B0EBD10F30D1FFE71D98407F80B969
:10086000FFE71E980068C06820F440101D990A7FB9
:10087000897F490541EA025108431E990968C86009
:100880001AE01E980068C06820F440101D99897F06
:1008900040EA41501E990968C8601D98007F0128F0
:1008A00009D1FFE71E99086C40F020000864012080
:1008B0008DF87300FFE7FFE7FFE71E980068806888
:1008C00010F00C0F40F00081FFE71D98006A01282E
:1008D0000DD1FFE71E980068C06820F000701D99D8
:1008E000497F40EA41601E990968C86014E01E987B
:1008F0000168C86820F00070C8601D98407F01281A
:1009000009D1FFE71E99086C40F02000086401201F
:100910008DF87300FFE7FFE71D9800680A2812D3DF
:10092000FFE71E98006880691D990A68896802EBD4
:1009300042021E3A072393409843914008431E9970
:100940000968886110E01E98006840691D990A686E
:10095000896802EB42020723934098439140084381
:100960001E9909684861FFE71D9840691E9909684A
:10097000C96801F018018908884006901D9800692F
:10098000013801460391032854D80399DFE801F0A8
:1009900002162A3E1E980068006E4FF20001C0F257
:1009A000FF3101401D980268069840EA82600843C2
:1009B00040F000401E990968086684E01E980068AF
:1009C000406E4FF20001C0F2FF3101401D980268F5
:1009D000069840EA8260084340F000401E9909688A
:1009E000486670E01E980068806E4FF20001C0F209
:1009F000FF3101401D980268069840EA8260084372
:100A000040F000401E99096888665CE01E98006806
:100A1000C06E4FF20001C0F2FF3101401D98026824
:100A2000069840EA8260084340F000401E99096839
:100A3000C86648E01E980068006E00F0F8401D99F6
:100A40000968B0EB816F07D1FFE71E980168086E57
:100A500020F000400866FFE71E980068406E00F036
:100A6000F8401D990968B0EB816F07D1FFE71E9828
:100A70000168486E20F000404866FFE71E98006855
:100A8000806E00F0F8401D990968B0EB816F07D1C6
:100A9000FFE71E980168886E20F000408866FFE737
:100AA0001E980068C06E00F0F8401D990968B0EB10
:100AB000816F07D1FFE71E980168C86E20F00040E3
:100AC000C866FFE7FFE7FFE71E980068806800F050
:100AD000030100200129029005D1FFE71E9800685C
:100AE00000680290FFE70298C007002840F0FD80F0
:100AF000FFE71D98C06801280DD0FFE71D98016829
:100B0000012000FA01F21E980168D1F8B00090436C
:100B1000C1F8B00035E01D980168012000FA01F22B
:100B20001E980168D1F8B0001043C1F8B0001D98BC
:100B300000680A2812D3FFE71E98006880691D9993
:100B40000A68896802EB42021B3A072393409843E4
:100B5000914008431E990968886111E01E98006859
:100B600040691D990A68896802EB42020332072333
:100B700093409843914008431E9909684861FFE7F4
:100B8000FFE740F20030C5F200001B901D9800689E
:100B9000102806D1FFE71B9880680002002818D5AE
:100BA000FFE71D980068112806D1FFE71B988068B1
:100BB000C00100280DD5FFE71D980068122840F0FD
:100BC0009380FFE71B9880684002002800F18C802A
:100BD000FFE71E980068B0F1A04F06D1FFE740F292
:100BE0000010C5F20000079003E04FF0A04007900E
:100BF000FFE71E980068806800F0030100200129CB
:100C0000019005D1FFE71E98006800680190FFE79A
:100C10000198C00700285DD1FFE7079890B1FFE772
:100C20000798806800F0030100200129009004D19A
:100C3000FFE7079800680090FFE70098C0070028CA
:100C400048D1FFE71D980068102824D1FFE71E98BF
:100C50000068B0F1A04F1ED1FFE71B99886840F4EF
:100C60000000886040F20000C2F2000000684DF60B
:100C70008361C4F21B31A0FB0110800C00EB8000EB
:100C800040000590FFE7059820B1FFE7059801387F
:100C90000590F8E71DE01D98006811280CD1FFE7CA
:100CA0001E980068B0F1A04F06D1FFE71B99886835
:100CB00040F0807088600BE01D980068122806D113
:100CC000FFE71B99886840F480008860FFE7FFE732
:100CD000FFE708E01E99086C40F02000086401203E
:100CE0008DF87300FFE7FFE7FFE7FFE71E9900209D
:100CF00081F83C00FFE79DF873008DF87F00FFE767
:100D00009DF87F0020B0704784B0039002910020CE
:100D100001900298013801460091032817D80099E4
:100D2000DFE801F0140E080203980068D0F88C0088
:100D3000019012E003980068D0F8880001900CE060
:100D400003980068D0F88400019006E0FFE703985C
:100D50000068D0F880000190FFE7019804B0704768
:100D600080B584B0029000208DF8070002990968D0
:100D7000896801F00801B0EBD10F40F08C80FFE7EB
:100D8000FFE7029890F83C00012804D1FFE7022019
:100D90008DF80F0088E00299012081F83C00FFE700
:100DA000FFE70298FFF7A8FB8DF807009DF8070002
:100DB000002868D1FFE70298006C40F4805042F2AE
:100DC000010188430299086440F20830C5F200002E
:100DD0000068C00630B1FFE702980068B0F1A04F8C
:100DE00006D1FFE70299086C20F48010086405E042
:100DF0000299086C40F480100864FFE70298006CC8
:100E0000C005002804D4FFE7029900204864FFE7EA
:100E1000FFE70299002081F83C00FFE70298016893
:100E20006020086002980068C0688001002829D40A
:100E3000FFE740F20830C5F200000068C006D0B1FC
:100E4000FFE740F20830C5F20000006800F01F0024
:100E5000062810D0FFE740F20830C5F20000006815
:100E600000F01F00072806D0FFE702980068B0F1E5
:100E7000A04F07D1FFE702980168886840F008009A
:100E80008860FFE706E0FFE70299002081F83C0058
:100E9000FFE7FFE703E002208DF80700FFE79DF87A
:100EA00007008DF80F00FFE79DF80F0004B080BD2C
:100EB0009DB01B901A9100208DF867001A98006869
:100EC00008B1FFE7FFE71B980068B0F1A04F06D11B
:100ED000FFE740F20010C5F20000049003E04FF07D
:100EE000A0400490FFE7049820B9FFE701208DF8A7
:100EF0007300B4E0FFE71B9890F83C00012804D190
:100F0000FFE702208DF87300A9E01B99012081F80A
:100F10003C00FFE7FFE71B980068806800F00401D1
:100F20000020B0EB910F40F08680FFE704988068C6
:100F300000F004010020B0EB910F7CD1FFE740F2FC
:100F40000030C5F2000018901A980068002840D0C0
:100F5000FFE71898806820F460401A9949681B9A46
:100F600092F8302041EA42310843189988601B9872
:100F70000068806800F0030100200129039005D17A
:100F8000FFE71B98006800680390FFE70398C0071D
:100F9000F0B9FFE70498806800F003010020012900
:100FA000029004D1FFE7049800680290FFE70298DE
:100FB000C00768B9FFE71898806840F61F7188433A
:100FC0001A9A116892681143084318998860FFE7DC
:100FD00030E01899886820F4604088601B980068A9
:100FE000806800F0030100200129019005D1FFE78E
:100FF0001B98006800680190FFE70198C007C0B91E
:10100000FFE70498806800F00301002001290090A8
:1010100004D1FFE7049800680090FFE70098C0073C
:1010200038B9FFE71899886840F61F7290438860C6
:10103000FFE7FFE708E01B99086C40F02000086418
:1010400001208DF86700FFE7FFE71B99002081F87A
:101050003C00FFE79DF867008DF87300FFE79DF8FF
:1010600073001DB07047000080B59CB01A9000203E
:101070008DF86700039002901A9820B9FFE70120CD
:101080008DF86F008BE11A98006938B1FFE71A9864
:1010900090F8200008B1FFE7FFE7FFE71A98006C1F
:1010A000C006002877D4FFE71A98006C002852D1B8
:1010B000FFE71A99002048641A99C8641A9988644D
:1010C0001A9981F83C001A9800F06EF91A98006895
:1010D0008068C00000283DD4FFE71A98FFF7A0F908
:1010E0008DF867001A98006CC006002831D4FFE71D
:1010F0009DF8670068BBFFE71A98006C40F002009B
:1011000020F488501A9908641A980168886820F0B9
:10111000405088601A980168886840F08050886064
:1011200040F20000C2F2000000684DF68361C4F294
:101130001B31A0FB0110800C00EB800040000290EE
:10114000FFE7029820B1FFE7029801380290F8E724
:10115000FFE7FFE7FFE71A9800688068C0000028F3
:1011600007D5FFE71A98006880688000002811D52D
:10117000FFE71A98006C40F0100020F002001A9966
:1011800008641A99486C40F00100486401208DF809
:101190006700FFE7FFE71A98006CC006002800F11F
:1011A000ED80FFE79DF86700002840F0E780FFE74B
:1011B0001A980068806800F004010020B0EB910FDD
:1011C00040F0DC80FFE71A98006C40F0020020F449
:1011D00080701A99086440F20030C5F2000018903F
:1011E0001A980068B0F1A04F06D1FFE740F2001056
:1011F000C5F20000049003E04FF0A0400490FFE728
:101200001A980068806800F003010020012901900D
:1012100005D1FFE71A98006800680190FFE7019880
:10122000C007F0B9FFE7049888B1FFE70498806829
:1012300000F0030100200129009004D1FFE7049889
:1012400000680090FFE70098C00750B9FFE71898C2
:10125000806820F440301A994968084318998860DA
:10126000FFE71A9A507E4003536B00F58051012B23
:1012700018BF08469168D268104301430398084399
:1012800003901A9890F82000012820D1FFE71A98BF
:10129000407E68B9FFE71A98416A0020CFF6FE70D9
:1012A00000EB41400399084340F4803003900DE087
:1012B0001A98006C40F0200020F002001A9908648F
:1012C0001A99486C40F001004864FFE7FFE71A985C
:1012D000806A012808D0FFE71A99886AC96A014321
:1012E000039808430390FFE71A980068806810F09D
:1012F0000C0F12D1FFE71A980168C86844F2020285
:101300009043C8601A99087E91F83010800340EA33
:101310004101039808430390FFE71A980068C068EA
:101320004CF20701CFF6F0710840039908431A996F
:101330000968C8601A98006901280CD1FFE71A985B
:101340000068006B20F00F001A9A1168D269013A08
:101350001043086306E01A980168086B20F00F003C
:101360000863FFE71A99002048641A98006C40F05F
:10137000010020F002001A9908640BE01A98006C32
:1013800040F0100020F002001A99086401208DF846
:101390006700FFE79DF867008DF86F00FFE79DF895
:1013A0006F001CB080BD000080B588B007900020A1
:1013B0000690059004900390029007980068B0F1A1
:1013C000A04F29D1FFE7FFE741F21400C4F2020069
:1013D000016841F080510160006800F08050019088
:1013E0000198FFE7FFE741F21400C4F20200016830
:1013F00041F400310160006800F400300090009872
:10140000FFE7032002900390002004904FF09040EB
:1014100002A900F003F8FFE708B080BD89B008908A
:10142000079100200690FFE7079800680699C840DA
:10143000002800F08981FFE707980068069A0121DB
:101440009140084005900598002800F07981FFE759
:101450000798406800F00300012807D0FFE70798CD
:10146000406800F0030002282FD1FFE70898806849
:10147000049006984100032000FA01F10498884383
:1014800004900798C0680699490000FA01F1049891
:10149000084304900498089988600898406804906C
:1014A0000699012000FA01F10498884304900798F6
:1014B0004068C0F30010069900FA01F1049808434F
:1014C0000490049808994860FFE70798406800F086
:1014D0000300032818D0FFE70898C0680490069816
:1014E0004100032000FA01F1049888430490079812
:1014F00080680699490000FA01F1049808430490B5
:1015000004980899C860FFE70798406800F0030056
:10151000022826D1FFE7089806996FF0030202EA35
:1015200051010844006A0490069800F00700810009
:101530000F2000FA01F1049888430490079800698D
:10154000069901F00701890000FA01F104980843A7
:10155000049004980899069B02EA53021144086219
:10156000FFE708980068049006984100032000FAFD
:1015700001F10498884304900798406800F0030044
:101580000699490000FA01F1049808430490049870
:1015900008990860079880798007002800F0CF80BC
:1015A000FFE7FFE741F21800C4F20200016841F0D2
:1015B00001010160006800F0010003900398FFE75B
:1015C000069820F003000821C4F20101405804905D
:1015D000069800F0030081000F2000FA01F1049842
:1015E000884304900898B0F1904F03D1FFE70020A2
:1015F000029026E0089840F20041C4F600018842BB
:1016000003D1FFE70120019018E0089840F600019F
:10161000C4F60001884203D1FFE7022000900AE0EF
:10162000089940F60042C4F600020520914208BF26
:1016300003200090FFE700980190FFE701980290D7
:10164000FFE70298069901F00301890000FA01F111
:101650000498084304900498069921F00301082295
:10166000C4F20102885040F20040C4F20100006858
:101670000490059904988843049007988079C007DE
:1016800028B1FFE70599049808430490FFE7049800
:1016900040F20041C4F20101086040F20440C4F28B
:1016A0000100006804900599049888430490079805
:1016B00080798007002805D5FFE70599049808433D
:1016C0000490FFE7049840F20441C4F2010108606D
:1016D00040F20840C4F201000068049005990498A3
:1016E0008843049007988079C006002805D5FFE755
:1016F0000599049808430490FFE7049840F20841D4
:10170000C4F20101086040F20C40C4F2010000681C
:10171000049005990498884304900798807980067E
:10172000002805D5FFE70599049808430490FFE7D2
:10173000049840F20C41C4F201010860FFE7FFE7A2
:101740000698013006906FE609B0704782B00190AC
:10175000ADF8021001980069BDF80210084204D0EB
:10176000FFE701208DF8010003E000208DF8010063
:10177000FFE79DF8010002B07047000082B00190C1
:10178000ADF802108DF801209DF8010028B1FFE7A7
:10179000BDF802000199886104E0BDF802000199DA
:1017A0008862FFE702B0704740F26020C2F200009A
:1017B0000068704786B0049003910292049890F8F4
:1017C000C100022804D1FFE702208DF8170099E03C
:1017D000FFE7049890F8C000012804D1FFE7022039
:1017E0008DF817008EE00499012081F8C000FFE712
:1017F000FFE70499022081F8C10004980068D0F83E
:10180000800301900398013801460091072851D8C0
:101810000099DFE801F004164F294F4F4F3C019823
:1018200020F4E02001900298006800F4E021019883
:10183000084301900298406804990968C1F8BC0304
:1018400043E0019820F4601001900298006800F4D1
:10185000E021019840EAC100019002984068049993
:101860000968C1F8C00330E0019820F0E0700190F1
:101870000298006800F4E021019840EA811001908C
:101880000298406804990968C1F8C4031DE00198F2
:1018900020F0606001900298006800F4E021019857
:1018A00040EA412001900298406804990968C1F813
:1018B000C8030AE00499072081F8C100FFE70499F2
:1018C000002081F8C000FFE7FFE7049890F8C1000E
:1018D000072804D1FFE701208DF8170012E00198D6
:1018E00004990968C1F880030499012081F8C100B6
:1018F000FFE70499002081F8C000FFE700208DF881
:101900001700FFE79DF8170006B0704781B0009000
:1019100001B0704782B00190009102B070470000A2
:1019200082B00190009102B07047000082B0019037
:10193000009102B07047000082B00190009102B0A7
:101940007047000082B00190009102B07047000023
:1019500082B00190009102B07047000082B0019007
:10196000009102B07047000081B0009001B0704754
:1019700083B001900091FFE7019890F8C000012822
:1019800004D1FFE702208DF80B0043E0019901200C
:1019900081F8C000FFE7FFE70199022081F8C1004C
:1019A0000098013088B9FFE701980168D1F8CC03AD
:1019B00020F00200C1F8CC0301980168D1F8CC03F3
:1019C00040F00100C1F8CC031CE001980168D1F897
:1019D000CC0340F00200C1F8CC0301980068D0F8B5
:1019E000CC0320F00C000099084301990968C1F864
:1019F000CC0301980168D1F8CC0340F00100C1F894
:101A0000CC03FFE70199012081F8C10000208DF887
:101A10000B00FFE79DF80B0003B0704782B0019008
:101A2000009102B07047000083B0019000910198CE
:101A300090F8C100022804D1FFE702208DF80B00C6
:101A40002EE0FFE7019890F8C000012804D1FFE7DD
:101A500002208DF80B0023E00199012081F8C000DD
:101A6000FFE7FFE70199022081F8C10001980068B3
:101A7000D0F8B8030099890F61F39F700199096844
:101A8000C1F8B8030199012081F8C100FFE701996D
:101A9000002081F8C000FFE700208DF80B00FFE771
:101AA0009DF80B0003B0704781B0009001B0704703
:101AB00081B0009001B0704781B0009001B07047D4
:101AC00081B0009001B0704781B0009001B07047C4
:101AD00080B582B0019000910098FF2804D1FFE703
:101AE000019802F0EDF80DE00098052804D1FFE719
:101AF000019802F001FA04E00198009902F09EFBBF
:101B0000FFE7FFE702B080BD80B586B0049004987F
:101B100020B9FFE701208DF81700BFE004990220EB
:101B200081F8C10004990020C1F8C4000499C1F8EB
:101B3000C8000499C1F8CC000499C1F8D0000499F8
:101B4000C1F8D4000499C1F8D8000498007AC007FD
:101B5000C0B3FFE70498006847F20041C4F20101F6
:101B6000884210D1FFE7FFE741F21800C4F20200FB
:101B7000016841F000510160006800F000500190E0
:101B80000198FFE7FFE70498006800680290029858
:101B900020F4404002900498006900F4404102980B
:101BA00008430290029820F4405002900498406943
:101BB00000F4405102980843029002980499096881
:101BC0000860FFE7049800F06DF80498007A800739
:101BD000002814D5FFE70498006800680290029876
:101BE00020F4407002900498C06800F4407102989C
:101BF000084302900298049909680860FFE7049975
:101C0000012081F8C100FFE70499002081F8C0009D
:101C1000FFE700208DF80F00FFE79DF80F00052873
:101C200038D8FFE704989DF80F10C1EBC10100EB15
:101C300081010020886104999DF80F20C2EBC20247
:101C400001EB8201C86104999DF80F20C2EBC2022A
:101C500001EB8201086204999DF80F20C2EBC202D9
:101C600001EB8201486204999DF80F20C2EBC20289
:101C700001EB8201886204999DF80F20C2EBC20239
:101C800001EB82010863FFE79DF80F0001308DF83A
:101C90000F00C2E700208DF81700FFE79DF817003E
:101CA00006B080BD80B584B003900398006847F209
:101CB0000041C4F20101884219D1FFE7FFE741F278
:101CC0001800C4F20200016841F000510160006890
:101CD00000F0005002900298FFE7442001900A2192
:101CE000002200F0C1FC019800F0B4FCFFE704B052
:101CF00080BD000080B588B0079000200690059058
:101D00000490039002900798006847F20041C4F2E3
:101D10000101884220D1FFE7FFE741F21400C4F23D
:101D20000200016841F400310160006800F40030F5
:101D300001900198FFE74FF4407002900220039059
:101D400000200490032005900D2006904FF0904055
:101D500002A9FFF763FBFFE708B080BD82B00190E6
:101D6000009102B07047000082B00190009102B073
:101D70007047000082B00190009102B070470000EF
:101D800082B00190009102B07047000080B584B02D
:101D900002900191FFF708FD0090FFE702980068AC
:101DA000D0F8880300F480310020B0EB114F19D136
:101DB000FFE701980130A0B1FFE7FFF7F5FC0099BC
:101DC000401A0199884203D8FFE7019840B9FFE71C
:101DD0000299072081F8C10003208DF80F000FE061
:101DE000FFE7DBE70299012081F8C100FFE70299D4
:101DF000002081F8C000FFE700208DF80F00FFE70A
:101E00009DF80F0004B080BD82B00190009102B037
:101E10007047000082B00190009102B0704700004E
:101E200081B0009001B0704781B0009001B0704760
:101E300080B584B0029001910092029890F8C100A0
:101E4000022804D1FFE702208DF80F001AE0029962
:101E5000022081F8C1000198052805D1FFE702980A
:101E6000009901F0BFFF05E002980199009A02F085
:101E70006BFBFFE70299012081F8C10000208DF87B
:101E80000F00FFE79DF80F0004B080BD87B00590FC
:101E9000049103920293059890F8C100022804D19E
:101EA000FFE702208DF81B004CE1FFE7059890F852
:101EB000C000012804D1FFE702208DF81B0041E19A
:101EC0000599012081F8C000FFE7FFE7059902208E
:101ED00081F8C100049805283BD1FFE70398013839
:101EE0000146019107281ED80199DFE801F0040A94
:101EF0001C101C1C1C160298006805990968C86112
:101F00001CE00298006805990968486216E002988A
:101F1000006805990968886210E0029800680599D0
:101F20000968C8620AE00599072081F8C100FFE747
:101F30000599002081F8C000FFE7FFE7059890F8B9
:101F4000C100072804D1FFE701208DF81B00F9E04C
:101F5000EAE00398013801460091072800F2CE809C
:101F60000099DFE801F0040ECB67CBCBCB71029870
:101F7000006805990968049A01EBC211C1F89C0038
:101F8000C7E00298006805990968049A01EBC2113C
:101F9000C1F8A40002984068D0B3FFE70598006834
:101FA000049900EBC111D1F8800020F44050C1F831
:101FB00080000298426805980068049900EBC111FE
:101FC000D1F880001043C1F8800002984068B0F555
:101FD000005F0AD1FFE70298806805990968049AB2
:101FE00001EBC211C1F89C0011E002984068B0F505
:101FF000405F0AD1FFE70298806805990968049A52
:1020000001EBC211C1F8A80000E0FFE7FFE710E014
:1020100005980068049900EBC110D0F8800020F406
:10202000405005990968049A01EBC211C1F880007B
:10203000FFE76EE00298006805990968049A01EBD1
:10204000C211C1F8A80064E0029800680599096807
:10205000049A01EBC211C1F8AC0002984068D8B3F1
:10206000FFE705980068049900EBC111D1F88000E2
:1020700020F44040C1F8800002984268059800684A
:10208000049900EBC111D1F8800040EA8200C1F848
:10209000800002984068B0F5005F0AD1FFE702981F
:1020A000806805990968049A01EBC211C1F89C0087
:1020B00011E002984068B0F5405F0AD1FFE702984E
:1020C000806805990968049A01EBC211C1F8A8005B
:1020D00000E0FFE7FFE710E005980068049900EBD7
:1020E000C110D0F8800020F4404005990968049A96
:1020F00001EBC211C1F88000FFE70AE00599072053
:1021000081F8C100FFE70599002081F8C000FFE7D2
:10211000FFE7059890F8C100072804D1FFE70120E8
:102120008DF81B000EE0FFE70599012081F8C10042
:10213000FFE70599002081F8C000FFE700208DF837
:102140001B00FFE79DF81B0007B0704784B00290AA
:102150000191FFE7029890F8C000012804D1FFE741
:1021600002208DF80F005FE00299012081F8C00085
:10217000FFE7FFE70299022081F8C1000298016899
:102180004268D1F890031043C1F890039DF806000F
:10219000C00740B1FFE702980168D0F8AC20C868DA
:1021A0001043C860FFE700208DF80300FFE79DF8AB
:1021B0000300042824D8FFE701989DF8032040F28B
:1021C0000401C2F2000151F82210084211D0FFE7C9
:1021D00002989DF80310C1EBC10200EB8202126A63
:1021E000006800EBC111D1F88C001043C1F88C00DD
:1021F000FFE7FFE79DF8030001308DF80300D6E705
:10220000019A029801680868104308600299012049
:1022100081F8C100FFE70299002081F8C000FFE7C4
:1022200000208DF80F00FFE79DF80F0004B0704705
:1022300085B00390029140F27F100190FFE7039870
:1022400090F8C000012804D1FFE702208DF81300A8
:1022500068E00399012081F8C000FFE7FFE70399D8
:10226000022081F8C100039801684268D1F8900308
:102270009043C1F890039DF80A00C00740B1FFE702
:1022800003980168D0F8AC20C8689043C860FFE7A5
:1022900000208DF80300FFE79DF80300042824D8F0
:1022A000FFE702989DF8032040F20401C2F200010A
:1022B00051F82210084211D0FFE703989DF803104F
:1022C000C1EBC10200EB8202126A006800EBC1118F
:1022D000D1F88C009043C1F88C00FFE7FFE79DF830
:1022E000030001308DF80300D6E7FFE701980138BD
:1022F0000190FFE701980028F8D1FFE7029A0398C0
:1023000001680868904308600399012081F8C100C2
:10231000FFE70399002081F8C000FFE700208DF857
:102320001300FFE79DF8130005B0704780B586B035
:102330000490039102920193049890F8C10002283E
:1023400004D1FFE702208DF8170028E0FFE704988A
:1023500090F8C000012804D1FFE702208DF8170093
:102360001DE00499012081F8C000FFE7FFE7049910
:10237000022081F8C10004980399029A019B01F0A0
:102380009FFE0499012081F8C100FFE70499002015
:1023900081F8C000FFE700208DF81700FFE79DF8E7
:1023A000170006B080BD000083B001900091FFE7E8
:1023B000019890F8C000012804D1FFE702208DF8B1
:1023C0000B001FE00199012081F8C000FFE7FFE743
:1023D0000199022081F8C100009A01980168D1F8A2
:1023E00094031043C1F894030199012081F8C100BE
:1023F000FFE70199002081F8C000FFE700208DF879
:102400000B00FFE79DF80B0003B0704783B001900D
:102410000091FFE7019890F8C000012804D1FFE780
:1024200002208DF80B001FE00199012081F8C00007
:10243000FFE7FFE70199022081F8C100009A0198A7
:102440000168D1F898031043C1F89803019901205D
:1024500081F8C100FFE70199002081F8C000FFE783
:1024600000208DF80B00FFE79DF80B0003B07047CC
:1024700080B584B0029001910092029890F8C1005A
:10248000022804D1FFE702208DF80F0062E0FFE789
:10249000029890F8C000012804D1FFE702208DF8CF
:1024A0000F0057E00299012081F8C000FFE7FFE725
:1024B0000299022081F8C1000198052805D1FFE7A3
:1024C0000298009901F0B8FC05E002980199009A81
:1024D00002F074F8FFE7009800680299019AC2EBD5
:1024E000C20201EB82010862009840680299019AD9
:1024F000C2EBC20201EB8201486200988068029937
:10250000019AC2EBC20201EB820188620098C068A6
:102510000299019AC2EBC20201EB8201C8620098E3
:1025200000690299019AC2EBC20201EB82010863C1
:102530000298019901F07EFB0299012081F8C10007
:10254000FFE70299002081F8C000FFE700208DF826
:102550000F00FFE79DF80F0004B080BD40F21C00A3
:10256000C2F20000027840F26021C2F20001086865
:10257000104408607047000080B542F20001C4F2C8
:102580000201086840F010000860032000F086F89F
:102590000F2000F005F800F03BF8002080BD00009F
:1025A00080B582B0009040F20000C2F200000068E6
:1025B00040F21C01C2F200010A784FF47A71B1FBBB
:1025C000F2F1B0FBF1F001F0F5F820B1FFE70120E6
:1025D0008DF8070018E000980F280DD8FFE7009944
:1025E0004FF0FF30002200F03FF8009840F2200149
:1025F000C2F20001086003E001208DF8070003E04B
:1026000000208DF80700FFE79DF8070002B080BDAD
:1026100082B0FFE741F21800C4F20200016841F005
:1026200001010160006800F0010001900198FFE7DE
:10263000FFE741F21C00C4F20200016841F0805142
:102640000160006800F0805000900098FFE702B041
:102650007047000080B582B08DF807009DF9070033
:1026600002F098FC02B080BD80B586B08DF81700EE
:10267000049103920020029002F0A4FC02909DF9C4
:102680001700019002980499039A02F005FB014695
:10269000019802F09FFC06B080BD000080B582B0BA
:1026A0000190019802F0B8FC02B080BD80B58AB0FC
:1026B00008900020079006908DF817000898807801
:1026C000C007002800F0D280FFE741F21C00C4F2EE
:1026D00002000068C000002813D4FFE7FFE741F2C2
:1026E0001C00C4F20200016841F0805101600068E2
:1026F00000F0805004900498FFE701208DF8170047
:10270000FFE747F20000C4F200000068C00500289F
:1027100022D4FFE747F20001C4F20001086840F448
:1027200080700860FFF740F80790FFE747F200006D
:10273000C4F200000068C00500280CD4FFE7FFF7D2
:1027400033F80799401A652804D3FFE703208DF872
:102750002700E8E0EAE7FFE741F22000C4F20200C8
:10276000006800F4407006900698002864D0FFE7E7
:1027700006980899496801F4407188425CD0FFE7E7
:1027800041F22001C4F20201086820F44070069072
:1027900040F24042C4F2422201201060002010604A
:1027A000069808609DF81800C007002843D0FFE78E
:1027B000FEF7FAFF0790FFE7012038B9FFE741F283
:1027C0000000C4F202000068039020E0002038B945
:1027D000FFE741F22000C4F202000068029013E01B
:1027E000012038B9FFE741F20400C4F2020000689A
:1027F000019006E041F22400C4F20200006801905A
:10280000FFE701980290FFE702980390FFE7039823
:10281000800700280ED4FFE7FEF7C6FF0799401A8D
:1028200041F28931884204D3FFE703208DF8270065
:1028300079E0C1E7FFE7FFE741F22001C4F20201BE
:10284000086820F44070089A5268104308609DF8A8
:102850001700012809D1FFE741F21C01C4F202016F
:10286000086820F080500860FFE7FFE708980078CC
:10287000C00760B1FFE741F23001C4F2020108680D
:1028800020F00300089A926810430860FFE7089858
:102890000078800600280CD5FFE741F23001C4F231
:1028A0000201086820F01000089AD26810430860FE
:1028B000FFE708980078000600280CD5FFE741F2F2
:1028C0002C01C4F20201086820F4F870089A126919
:1028D00010430860FFE708984078C00600280CD530
:1028E000FFE741F23001C4F20201086820F4807071
:1028F000089A526910430860FFE70898407840063C
:1029000000280CD5FFE741F23001C4F2020108684B
:1029100020F48050089A926910430860FFE7002075
:102920008DF82700FFE79DF827000AB080BD000062
:1029300080B58EB00C900B9100200A900C9820B9B5
:10294000FFE701208DF8370073E10B9842F2000198
:10295000C4F20201096801F00701884216D9FFE7B5
:1029600042F20000C4F20200016821F007010B9A54
:1029700011430160006800F007000B99884204D001
:10298000FFE701208DF8370053E1FFE70C9800784E
:10299000800700280CD5FFE741F20401C4F20201D0
:1029A000086820F0F0000C9A926810430860FFE776
:1029B0000C980078C007002800F0D680FFE70C983C
:1029C0004068012835D1FFE7002038B9FFE741F220
:1029D0000000C4F202000068099020E0012038B92C
:1029E000FFE741F22000C4F202000068089013E003
:1029F000012038B9FFE741F20400C4F20200006888
:102A0000079006E041F22400C4F20200006807903B
:102A1000FFE707980890FFE708980990FFE70998F3
:102A20008003002804D4FFE701208DF8370000E17F
:102A30006FE00C984068022835D1FFE7002038B9D4
:102A4000FFE741F20000C4F202000068069020E0B7
:102A5000012038B9FFE741F22000C4F2020000680B
:102A6000059013E0012038B9FFE741F20400C4F2F9
:102A700002000068049006E041F22400C4F2020063
:102A800000680490FFE704980590FFE7059806901A
:102A9000FFE706988001002804D4FFE701208DF8A5
:102AA0003700C6E034E0002038B9FFE741F200000B
:102AB000C4F202000068039020E0012038B9FFE76B
:102AC00041F22000C4F202000068029013E00120ED
:102AD00038B9FFE741F20400C4F202000068019037
:102AE00006E041F22400C4F2020000680190FFE712
:102AF00001980290FFE702980390FFE70398800790
:102B0000002804D4FFE701208DF8370091E0FFE7AB
:102B1000FFE741F20401C4F20201086820F003005B
:102B20000C9A526810430860FEF73EFE0A90FFE7D9
:102B300041F20400C4F20200006800F00C000C999D
:102B40004968B0EB810F0ED0FFE7FEF72DFE0A9922
:102B5000401A41F28931884204D3FFE703208DF8FF
:102B6000370066E0E4E7FFE70B9842F20001C4F2A9
:102B70000201096801F00701884216D2FFE742F21C
:102B80000000C4F20200016821F007010B9A114312
:102B90000160006800F007000B99884204D0FFE74D
:102BA00001208DF8370044E0FFE70C9800784007DB
:102BB00000280CD5FFE741F20401C4F202010868C5
:102BC00020F4E0600C9AD26810430860FFE70C988C
:102BD0000078000700280DD5FFE741F20401C4F298
:102BE0000201086820F460500C9A126940EAC200A1
:102BF0000860FFE700F028F841F20401C4F2020186
:102C00000968C9B20A0945F68C21C0F60001895C41
:102C1000C84040F20001C2F20001086040F220000A
:102C2000C2F200000068FFF7BBFC00208DF83700FF
:102C3000FFE79DF837000EB080BD000040F20000B5
:102C4000C2F200000068704780B586B00020059091
:102C5000049003900290019041F20400C4F202003B
:102C600000680590059800F00C00014600910028CE
:102C700041D0FFE70098042804D0FFE70098082817
:102C800006D039E041F20020C0F27A00019039E02C
:102C90000598C0F3834145F69C20C0F60000405CD7
:102CA000029041F22C00C4F20200006800F00F0113
:102CB00045F6AC20C0F60000405C04909DF816007C
:102CC000C00768B1FFE7049A41F20020C0F27A0021
:102CD00000231946FDF7C8FA02994843039007E01C
:102CE000029840F60011C0F23D0148430390FFE70F
:102CF0000398019006E0FFE741F20020C0F27A005D
:102D00000190FFE7019806B080BD000080B5AEB02D
:102D10002C902C9828B9FFE701208DF8B70000F01F
:102D200028BD2C980078C007002800F03181FFE70B
:102D300041F20400C4F20200006800F00C00042814
:102D400013D0FFE741F20400C4F20200006800F073
:102D50000C00082843D1FFE741F20400C4F202004E
:102D60000068C00300283AD5FFE7002038B9FFE724
:102D700041F20000C4F202000068279020E0012028
:102D800038B9FFE741F22000C4F202000068269043
:102D900013E0012038B9FFE741F20400C4F2020059
:102DA0000068259006E041F22400C4F202000068A9
:102DB0002590FFE725982690FFE726982790FFE7C4
:102DC00027988003002809D5FFE72C98406828B988
:102DD000FFE701208DF8B70000F0CBBCD7E0FFE79C
:102DE0002C984068B0F5803F09D1FFE741F200011F
:102DF000C4F20201086840F48030086032E02C9888
:102E0000406868B9FFE741F20001C4F202010868B6
:102E100020F480300860086820F48020086020E0FA
:102E20002C984068B0F5A02F0DD1FFE741F20001CA
:102E3000C4F20201086840F480200860086840F489
:102E4000803008600CE041F20001C4F20201086821
:102E500020F480300860086820F480200860FFE7D4
:102E6000FFE7FFE7FFE741F22C01C4F20201086827
:102E700020F00F002C9A9268104308602C9840684C
:102E8000002842D0FFE7FEF78FFC2B90FFE70020E1
:102E900038B9FFE741F20000C4F202000068249054
:102EA00020E0012038B9FFE741F22000C4F202001F
:102EB0000068239013E0012038B9FFE741F20400D5
:102EC000C4F202000068229006E041F22400C4F23D
:102ED000020000682290FFE722982390FFE72398E2
:102EE0002490FFE72498800300280DD4FFE7FEF725
:102EF0005BFC2B99401A652805D3FFE703208DF86A
:102F0000B70000F036BCC2E740E0FEF74DFC2B9066
:102F1000FFE7002038B9FFE741F20000C4F20200E9
:102F20000068219020E0012038B9FFE741F220003D
:102F3000C4F202000068209013E0012038B9FFE7D6
:102F400041F20400C4F2020000681F9006E041F262
:102F50002400C4F2020000681F90FFE71F98209031
:102F6000FFE720982190FFE72198800300280CD5E7
:102F7000FFE7FEF719FC2B99401A652804D3FFE7F9
:102F800003208DF8B700F4E3C3E7FFE7FFE7FFE7AF
:102F90002C9800788007002840F10381FFE741F278
:102FA0000400C4F20200006810F00C0F13D0FFE719
:102FB00041F20400C4F20200006800F00C0008288E
:102FC00050D1FFE741F20400C4F202000068C003E0
:102FD000002847D4FFE7002038B9FFE741F200009E
:102FE000C4F2020000681E9020E0012038B9FFE71B
:102FF00041F22000C4F2020000681D9013E001209D
:1030000038B9FFE741F20400C4F2020000681C90E6
:1030100006E041F22400C4F2020000681C90FFE7C1
:103020001C981D90FFE71D981E90FFE71E988007D3
:10303000002809D5FFE72C980069012804D0FFE794
:1030400001208DF8B70094E341F20001C4F20201BF
:10305000086820F0F8002C9A526940EAC200086023
:10306000FFE79DE02C980069002852D0FFE700217F
:10307000C4F2422101200860FEF796FB2B90FFE787
:10308000002038B9FFE741F20000C4F202000068F6
:103090001B9020E0012038B9FFE741F22000C4F284
:1030A000020000681A9013E0012038B9FFE741F2EE
:1030B0000400C4F202000068199006E041F2240006
:1030C000C4F2020000681990FFE719981A90FFE710
:1030D0001A981B90FFE71B98800700280CD4FFE785
:1030E000FEF762FB2B99401A032804D3FFE7032065
:1030F0008DF8B7003DE3C3E741F20001C4F20201DD
:10310000086820F0F8002C9A526940EAC200086072
:1031100045E00021C4F2422100200860FEF744FB94
:103120002B90FFE7002038B9FFE741F20000C4F21E
:1031300002000068189020E0012038B9FFE741F252
:103140002000C4F202000068179013E0012038B993
:10315000FFE741F20400C4F202000068169006E0A6
:1031600041F22400C4F2020000681690FFE71698AE
:103170001790FFE717981890FFE718988007002826
:103180000CD5FFE7FEF710FB2B99401A032804D358
:10319000FFE703208DF8B700EBE2C3E7FFE7FFE7A7
:1031A000FFE72C9800780007002840F19580FFE7A2
:1031B0002C988069002847D0FFE740F28041C4F294
:1031C000422101200860FEF7EFFA2B90FFE7012073
:1031D00038B9FFE741F20000C4F202000068159020
:1031E00020E0012038B9FFE741F22000C4F20200DC
:1031F0000068149013E0012038B9FFE741F20400A1
:10320000C4F202000068139006E041F22400C4F208
:10321000020000681390FFE713981490FFE71498DA
:103220001590FFE71598800700280CD4FFE7FEF7FC
:10323000BBFA2B99401A032804D3FFE703208DF82B
:10324000B70096E2C3E746E040F28041C4F2422173
:1032500000200860FEF7A8FA2B90FFE7012038B99C
:10326000FFE741F20000C4F202000068129020E083
:10327000012038B9FFE741F22000C4F202000068E3
:10328000119013E0012038B9FFE741F20400C4F2C5
:1032900002000068109006E041F22400C4F202002F
:1032A00000681090FFE710981190FFE711981290B6
:1032B000FFE71298800700280CD5FFE7FEF774FAA5
:1032C0002B99401A032804D3FFE703208DF8B70099
:1032D0004FE2C3E7FFE7FFE72C980078400700289C
:1032E00040F12781FFE700208DF8A70041F21C0084
:1032F000C4F202000068C000002813D4FFE7FFE713
:1033000041F21C00C4F20200016841F080510160EA
:10331000006800F0805028902898FFE701208DF881
:10332000A700FFE747F20000C4F200000068C005F4
:10333000002822D4FFE747F20001C4F20001086828
:1033400040F480700860FEF72FFA2B90FFE747F2F9
:103350000000C4F200000068C00500280CD4FFE79C
:10336000FEF722FA2B99401A652804D3FFE70320C1
:103370008DF8B700FDE1EAE7FFE7FFE72C98C068AA
:10338000012809D1FFE741F22001C4F202010868D7
:1033900040F00100086031E02C98C06868B9FFE790
:1033A00041F22001C4F20201086820F00100086027
:1033B000086820F0040008601FE02C98C068052809
:1033C0000DD1FFE741F22001C4F20201086840F08C
:1033D00004000860086840F0010008600CE041F259
:1033E0002001C4F20201086820F0010008600868AA
:1033F00020F004000860FFE7FFE7FFE7FFE72C98F5
:10340000C068002843D0FFE7FEF7CEF92B90FFE716
:10341000012038B9FFE741F20000C4F20200006861
:103420000F9020E0002038B9FFE741F22000C4F2FD
:10343000020000680E9013E0012038B9FFE741F266
:103440000400C4F2020000680D9006E041F224007E
:10345000C4F2020000680D90FFE70D980E90FFE7A0
:103460000E980F90FFE70F98800700280ED4FFE713
:10347000FEF79AF92B99401A41F28931884204D318
:10348000FFE703208DF8B70073E1C1E742E0FEF7E4
:103490008BF92B90FFE7012038B9FFE741F20000DC
:1034A000C4F2020000680C9020E0002038B9FFE769
:1034B00041F22000C4F2020000680B9013E00120EA
:1034C00038B9FFE741F20400C4F2020000680A9034
:1034D00006E041F22400C4F2020000680A90FFE70F
:1034E0000A980B90FFE70B980C90FFE70C98800769
:1034F00000280ED5FFE7FEF757F92B99401A41F245
:103500008931884204D3FFE703208DF8B70030E10A
:10351000C1E7FFE79DF8A700012809D1FFE741F2C5
:103520001C01C4F20201086820F080500860FFE727
:10353000FFE72C98C069002800F01781FFE741F2EF
:103540000400C4F20200006800F00C00082800F03B
:10355000E680FFE72C98C069022840F09980FFE7D9
:103560006021C4F2422100200860FEF71DF92B9073
:10357000FFE7002038B9FFE741F20000C4F2020083
:103580000068099020E0012038B9FFE741F22000EF
:10359000C4F202000068089013E0012038B9FFE788
:1035A00041F20400C4F202000068079006E041F214
:1035B0002400C4F2020000680790FFE70798089013
:1035C000FFE708980990FFE70998800100280CD5CB
:1035D000FFE7FEF7E9F82B99401A032804D3FFE729
:1035E00003208DF8B700C4E0C3E741F20401C4F240
:1035F0000201086820F474102C9A136A526A1A4364
:10360000104308606021C4F2422101200860FEF7E7
:10361000CBF82B90FFE7002038B9FFE741F200001C
:10362000C4F202000068069020E0012038B9FFE7EC
:1036300041F22000C4F202000068059013E001206E
:1036400038B9FFE741F20400C4F2020000680490B8
:1036500006E041F22400C4F2020000680490FFE793
:1036600004980590FFE705980690FFE7069880010B
:1036700000280CD4FFE7FEF797F82B99401A03288F
:1036800004D3FFE703208DF8B70072E0C3E745E0FD
:103690006021C4F2422100200860FEF785F82B90DB
:1036A000FFE7002038B9FFE741F20000C4F2020052
:1036B0000068039020E0012038B9FFE741F22000C4
:1036C000C4F202000068029013E0012038B9FFE75D
:1036D00041F20400C4F202000068019006E041F2E9
:1036E0002400C4F2020000680190FFE701980290F4
:1036F000FFE702980390FFE70398800100280CD5AC
:10370000FFE7FEF751F82B99401A032804D3FFE78F
:1037100003208DF8B7002CE0C3E7FFE724E02C98E6
:10372000C069012804D1FFE701208DF8B70020E02F
:1037300041F20400C4F2020000682A902A9800F4C2
:1037400080302C99096A884208D1FFE72A9800F452
:1037500070102C99496A884204D0FFE701208DF847
:10376000B70006E0FFE7FFE7FFE700208DF8B700AE
:10377000FFE79DF8B7002EB080BD000081B000903B
:103780000098042809D1FFE74EF21001CEF20001A3
:10379000086840F00400086008E04EF21001CEF224
:1037A0000001086820F004000860FFE701B07047DE
:1037B0007047000080B582B00190019801F0A6FA30
:1037C00002B080BD80B5FFF7F3FF80BD85B00390E8
:1037D0000291FFE7039890F83C00012804D1FFE72D
:1037E00002208DF813006EE00399012081F83C005F
:1037F000FFE7FFE70399022081F83D000398006886
:103800004068019003980068806800900398006801
:1038100042F60041C4F2010188420AD1FFE7019853
:1038200020F47000019002984168019808430190CB
:10383000FFE7019820F0700001900298016801985C
:10384000084301900198039909684860039800684B
:1038500042F60041C4F20101884218D0FFE7039804
:103860000068B0F1804F12D0FFE70398006840F283
:103870000041C4F20001884209D0FFE703980068C4
:1038800044F20001C4F2010188420ED1FFE7009822
:1038900020F0800000900298816800980843009012
:1038A0000098039909688860FFE70399012081F86F
:1038B0003D00FFE70399002081F83C00FFE700206E
:1038C0008DF81300FFE79DF8130005B07047000066
:1038D00080B586B004900391049820B9FFE70120D9
:1038E0008DF817008AE0049890F83D0040B9FFE792
:1038F0000499002081F83C00049800F083F8FFE769
:103900000499022081F83D000498016888684BF60C
:10391000F872CFF6FE7210408860049951F8040BDB
:1039200001F082FA049800688068029004980068A8
:103930008069019004980068006A0090039801680B
:10394000029808430290019840F2033188430190A5
:1039500003998868896940EA012101980843019028
:10396000019840F60C418843019001984FF2F00114
:10397000884301900399C868C96940EA0121019808
:103980000843019003990869096A000140EA01317E
:10399000019808430190009820F0220000900098C0
:1039A00020F08800009003994868496940EA0111B5
:1039B000009808430090029804990968886001986B
:1039C0000499096888610098049909680862049953
:1039D000012081F84800049981F83E00049981F89B
:1039E0003F00049981F84400049981F84500049946
:1039F00081F83D0000208DF81700FFE79DF81700C3
:103A000006B080BD80B58EB00D9000200C900B905C
:103A10000A90099008900D980068B0F1804F52D13B
:103A2000FFE7FFE741F21C00C4F20200016841F029
:103A300001010160006800F0010007900798FFE7AE
:103A4000FFE741F21400C4F20200016841F40031C2
:103A50000160006800F4003006900698FFE7FFE779
:103A600041F21400C4F20200016841F480210160B7
:103A7000006800F4802005900598FFE7202008905A
:103A8000022001900990012003900A9000210291E8
:103A90000B910C904FF0904008A90491FDF7BEFCEB
:103AA000019B029A039804994FF0080CCDF820C0AE
:103AB00009930A900B920C9040F20040C4F600006B
:103AC000FDF7ACFCFFE70EB080BD000080B586B00E
:103AD00004900391049890F83E008DF80B00049830
:103AE00090F83F008DF80A00049890F844008DF893
:103AF0000900049890F845008DF808000398B8B9BB
:103B0000FFE79DF80B00012805D1FFE79DF80900AC
:103B1000012804D0FFE701208DF8170079E004990F
:103B2000022081F83E00049981F84400FFE742E05A
:103B30000398042817D1FFE79DF80A00012805D152
:103B4000FFE79DF80800012804D0FFE701208DF869
:103B500017005EE00499022081F83F00049981F883
:103B60004500FFE726E09DF80B0001280FD1FFE795
:103B70009DF80A0001280AD1FFE79DF809000128F5
:103B800005D1FFE79DF80800012804D0FFE70120D8
:103B90008DF817003DE00499022081F83E00049959
:103BA00081F83F00049981F84400049981F84500A8
:103BB000FFE7FFE7FFE70398019020B1FFE70198D7
:103BC000042807D00DE0049800680021012201F0CC
:103BD000C3F914E0049800680421012201F0BCF943
:103BE0000DE00498006800210122009201F0B4F970
:103BF000009A04980068042101F0AEF9FFE70498E8
:103C00000168086840F00100086000208DF8170086
:103C1000FFE79DF8170006B080BD000080B540F2B8
:103C20002010C2F200000021FDF752FF01F088FCD5
:103C300080BD000083B0029001910198009005289A
:103C40003BD80099DFE801F00C151E2730030298DD
:103C50000168D1F8840340F00100C1F884032DE02D
:103C600002980168D1F8840340F00200C1F884038F
:103C700024E002980168D1F8840340F00400C1F800
:103C800084031BE002980168D1F8840340F0080027
:103C9000C1F8840312E002980168D1F8840340F06F
:103CA0001000C1F8840309E002980168D1F8840388
:103CB00040F02000C1F8840300E0FFE703B0704744
:103CC00080B584B0039003980068D0F88803029010
:103CD00003980068D0F8900301909DF80800C00791
:103CE00078B1FFE79DF80400C00748B1FFE70398EB
:103CF00001680120C1F88C030398FDF7D5FEFFE7AA
:103D0000FFE79DF808008007002810D5FFE79DF821
:103D100004008007002809D5FFE703980168022006
:103D2000C1F88C030398FDF7C3FEFFE7FFE79DF89A
:103D300008004007002810D5FFE79DF80400400761
:103D4000002809D5FFE7039801680420C1F88C0317
:103D50000398FDF7B1FEFFE7FFE79DF808000007B5
:103D6000002810D5FFE79DF804000007002809D5BA
:103D7000FFE7039801680820C1F88C030398FDF75A
:103D80009FFEFFE7FFE79DF80800C006002810D55A
:103D9000FFE79DF80400C006002809D5FFE7039857
:103DA00001681020C1F88C030398FDF78DFEFFE732
:103DB000FFE79DF808008006002810D5FFE79DF872
:103DC00004008006002809D5FFE703980168202039
:103DD000C1F88C030398FEF727F8FFE7FFE704B06C
:103DE00080BD000083B002900191029800680068D5
:103DF0000090009820F007000090019881680098DA
:103E000008430090009820F0180000900198C168C5
:103E1000009808430090009802990968086001988A
:103E20000068029909684861019840680299096828
:103E3000886103B07047000084B00390029103983A
:103E400000680068019003980068D0F8A003009013
:103E5000019820F0200001900298416901980843E0
:103E60000190019820F40060019002988169019806
:103E700008430190019820F4806001900298C16984
:103E8000019808430190019820F0C06001900298C9
:103E9000016A019808430190019820F000600190A8
:103EA0000298416A019808430190019820F040402F
:103EB00001900298816A019840EA8100019001987E
:103EC00020F0005001900298016B01980843019086
:103ED000009820F4803000900298C16A009808434E
:103EE000009001980399096808600098039909688F
:103EF000C1F8A00304B0704780B586B0059005985E
:103F00000068D0F88803049005980068D0F8900302
:103F10000390059800684068029005980068C068A2
:103F200001909DF81200C007D0B1FFE79DF80E0088
:103F3000C007A0B1FFE7059801684FF48030C1F8D1
:103F40008C030599012081F8C100FFE70599002045
:103F500081F8C000FFE70598FDF706FDFFE7FFE7E2
:103F60009DF812008007002811D5FFE79DF80E008C
:103F7000800700280AD5FFE7059801684FF4003054
:103F8000C1F88C030598FDF7C1FCFFE7FFE79DF83A
:103F90000800C00778B1FFE79DF80400C00748B1EA
:103FA000FFE7059801680120886005980521FDF765
:103FB000BDFCFFE7FFE79DF808008007002810D54B
:103FC000FFE79DF804008007002809D5FFE7059862
:103FD00001680220886005980521FDF7ADFCFFE728
:103FE000FFE79DF808004007002810D5FFE79DF87F
:103FF00004004007002809D5FFE705980168042060
:10400000886005980521FDF79DFCFFE7FFE79DF817
:1040100008000007002810D5FFE79DF804000007FE
:10402000002809D5FFE705980168082088600598F1
:104030000521FDF78DFCFFE7FFE79DF80800C006AE
:10404000002810D5FFE79DF80400C006002809D518
:10405000FFE7059801681020886005980521FDF7A5
:10406000D9FEFFE7FFE79DF80800800600280FD57E
:10407000FFE79DF804008006002808D5FFE70598B3
:104080000168202088600598FDF7CAFEFFE7FFE77A
:104090009DF808004006002810D5FFE79DF80400B1
:1040A0004006002809D5FFE7059801684020886090
:1040B00005980521FDF7A8FEFFE7FFE706B080BDE4
:1040C00088B007900691059204930020019007980C
:1040D0000068069900EBC110D0F8E400039007983F
:1040E0000068069900EBC110D0F8B800029005985E
:1040F0000090012826D0FFE70098022835D0FFE77E
:10410000009804281ED0FFE7009808282DD0FFE76C
:104110000098102816D0FFE70098202825D0FFE748
:10412000009840280ED0FFE7009880281DD0FFE7B8
:104130000098B0F5807F05D0FFE70098B0F5007FCC
:1041400013D027E00498406807990968069A01EBA4
:10415000C211C1F8BC000498806807990968069AE2
:1041600001EBC211C1F8C00015E00498406807993E
:104170000968069A01EBC211C1F8C400049880686E
:1041800007990968069A01EBC211C1F8C80010200E
:10419000019000E0FFE70199FE2000FA01F1039889
:1041A0008843039004980068019900FA01F103988C
:1041B000084303900498C068019900FA01F103983C
:1041C0000843039004980069019900FA01F10398EB
:1041D0000843039004984069019900FA01F103989B
:1041E0000843039004988069019900FA01F103984B
:1041F0000843039004980069082815D1FFE79DF84B
:104200000900800700280FD4FFE79DF80B00800706
:10421000002809D4FFE70498C069019900FA01F168
:10422000039808430390FFE7039807990968069AE3
:1042300001EBC211C1F8E40008B0704780B584B04A
:104240000390029103980068029900EBC110D0F826
:104250008400019003980068029900EBC110D0F827
:104260008C0000909DF80400C00798B1FFE79DF80E
:104270000000C00768B1FFE703980068029900EBEF
:10428000C1110120C1F8880003980299FDF74EFB87
:10429000FFE7FFE79DF804008007002814D5FFE73B
:1042A0009DF80000800700280DD5FFE703980068FF
:1042B000029900EBC1110220C1F88800039802990D
:1042C000FDF73AFBFFE7FFE79DF8040040070028F1
:1042D00014D5FFE79DF80000400700280DD5FFE743
:1042E00003980068029900EBC1110420C1F888000E
:1042F00003980299FDF726FBFFE7FFE79DF804000E
:104300000007002814D5FFE79DF8000000070028EB
:104310000DD5FFE703980068029900EBC111082052
:10432000C1F8880003980299FDF712FBFFE7FFE749
:104330009DF80400C006002814D5FFE79DF8000092
:10434000C00600280DD5FFE703980068029900EB2E
:10435000C1111020C1F8880003980299FDF75AFD99
:10436000FFE7FFE79DF804004006002814D5FFE7AB
:104370009DF80000400600280DD5FFE7039800686F
:10438000029900EBC1114020C1F8880003980299FE
:10439000FDF73AFDFFE7FFE79DF80400000600285F
:1043A00014D5FFE79DF80000000600280DD5FFE7B3
:1043B00003980068029900EBC1118020C1F88800C1
:1043C00003980299FDF7A6FAFFE7FFE79DF80500BD
:1043D000C007A0B1FFE79DF80100C00770B1FFE77B
:1043E00003980068029900EBC1114FF48070C1F886
:1043F000880003980299FDF793FAFFE7FFE79DF81D
:1044000005008007002815D5FFE79DF8010080070B
:1044100000280ED5FFE703980068029900EBC11150
:104420004FF40070C1F8880003980299FDF79CFCD6
:10443000FFE7FFE79DF805004007002815D5FFE7D7
:104440009DF80100400700280ED5FFE7039800689B
:10445000029900EBC1114FF48060C1F88800039805
:104460000299FDF77BFCFFE7FFE79DF805000007D9
:10447000002815D5FFE79DF80100000700280ED59C
:10448000FFE703980068029900EBC1114FF4006048
:10449000C1F8880003980299FDF772FCFFE7FFE777
:1044A0009DF80500C006002815D5FFE79DF801001E
:1044B000C00600280ED5FFE703980068029900EBBC
:1044C000C1114FF48050C1F8880003980299FDF79C
:1044D00051FCFFE7FFE79DF805008006002815D591
:1044E000FFE79DF80100800600280ED5FFE703983E
:1044F0000068029900EBC1114FF40050C1F8880028
:1045000003980299FDF72AFAFFE7FFE79DF80500F7
:104510004006002815D5FFE79DF801004006002859
:104520000ED5FFE703980068029900EBC1114FF424
:104530008040C1F8880003980299FDF76FFAFFE701
:10454000FFE704B080BD000084B0039002910192A7
:1045500003980068029900EBC110D0F88000009029
:10456000009820F0070000900198816800980843A7
:104570000090009820F0180000900198C168009801
:1045800008430090009803990968029A01EBC21150
:10459000C1F880000198006803990968029A01EB4C
:1045A000C211C1F894000198406803990968029A01
:1045B00001EBC211C1F8980004B0704789B00890AF
:1045C0000791069208980068079900EBC111D1F88D
:1045D000800020F07040C1F88000089800680799BA
:1045E00000EBC110D0F8800005900898006807998A
:1045F00000EBC110D0F8E800049008980068079913
:1046000000EBC110D0F8E400039008980068D0F8DF
:10461000A0030190059820F02000059006984169BC
:10462000059808430590059820F4006005900698C9
:104630008169059808430590059820F480600590ED
:104640000698C169059808430590059820F0C06058
:1046500005900698016A059808430590059820F092
:10466000006005900698416A0598084305900598F2
:1046700020F0704005900698816A059808430590DF
:10468000059820F4003005900698006BB0F1005FAB
:1046900005D1FFE7059840F400300590FFE7059845
:1046A00020F0400005900698416B0598084305905E
:1046B000059820F4802005900698016D0598084320
:1046C0000590059820F0FC7005900698816C05987F
:1046D00008430590049820F01F0004900698806B12
:1046E00000F01F01049808430490049820F0004053
:1046F00004900698C16B0498084304900698406B98
:1047000050B9FFE7039820F4807003900698016C7D
:10471000039808430390FFE70698406CB0F5606F7C
:1047200006D0FFE70698406CB0F5F05F05D1FFE7D3
:104730000698406B40280AD1FFE7039820F4F05018
:1047400003900698416C039808430390FFE706988E
:10475000C06C02900798009004283CD80099DFE8CC
:1047600001F0030E19242F00019820F4003001906D
:104770000698C16A019840EA410001902CE0019836
:1047800020F4802001900698C16A019840EA8100D7
:10479000019021E0019820F4002001900698C16A60
:1047A000019840EAC100019016E0019820F48010C1
:1047B00001900698C16A019840EA011001900BE04F
:1047C000019820F4001001900698C16A019840EA0F
:1047D0004110019000E0FFE7059808990968079AE1
:1047E00001EBC211C1F88000049808990968079A82
:1047F00001EBC211C1F8E800039808990968079A0B
:1048000001EBC211C1F8E400029808990968079AFF
:1048100001EBC211C1F8D400019808990968C1F8E8
:10482000A00309B070470000FFE7FEE780B590B035
:10483000002001900F900E900D9003A82821FBF707
:104840008BFD019940F2D000C2F2000002904FF0BF
:10485000A04202604160816001220261417680F8DD
:104860002010C160C26180F83010082242610176D8
:104870004163FCF7F9FB18B1FFE7FBF7A7FEFFE781
:1048800000200D9040F2D000C2F200000DA9FCF70C
:104890000FFB18B1FFE7FBF799FEFFE7012103913A
:1048A00004910020069002220992059040220C9269
:1048B00024220B928DF829008DF828108DF82A00FB
:1048C0000890079040F2D000C2F2000003A9FBF765
:1048D00005FF18B1FFE7FBF779FEFFE70220039021
:1048E000049040F2D000C2F2000003A9FBF7F6FEEC
:1048F00018B1FFE7FBF76AFEFFE710B080BD0000CC
:1049000080B58EB000200D900C900B900A9009900D
:10491000FFE741F21400C4F20200016841F4800193
:104920000160006800F4800008900898FFE7FFE746
:1049300041F21400C4F20200016841F40031016048
:10494000006800F4003007900798FFE7FFE741F2A6
:104950001400C4F20200016841F480210160006883
:1049600000F4802006900698FFE74FF090400490F6
:104970000821009100220392FCF700FF039A40F205
:104980000040C4F60000029001210191FCF7F6FE00
:10499000009B019A0399049809930A920B910C9138
:1049A00009A90591FCF73AFD019B0298039A059924
:1049B00009930A930B920C92FCF730FD039A04982A
:1049C00005994FF4805309930A920B92FCF726FD48
:1049D0000EB080BD80B5A8B0002001902790269031
:1049E00025902490239022900DA85421FBF7B4FC2D
:1049F00001990C910B910A910991089107910691E7
:104A0000059104910391029140F22010C2F200003E
:104A100047F20042C4F20102026041608160FDF78A
:104A200073F818B1FFE7FBF7D1FDFFE740F2201064
:104A3000C2F200000C21FCF79BFF18B1FFE7FBF767
:104A4000C5FDFFE740F22010C2F200000A21FDF789
:104A50009DF918B1FFE7FBF7B9FDFFE740F2201021
:104A6000C2F200000021FCF7DFFF18B1FFE7FBF7FF
:104A7000ADFDFFE74FF4803026904FF48050279033
:104A800040F22010C2F20000022126AAFCF792FE9A
:104A900018B1FFE7FBF79AFDFFE74FF46140229062
:104AA00000212391012024900820259040F220101D
:104AB000C2F2000022AAFDF7BBF918B1FFE7FBF72D
:104AC00085FDFFE710200D90002100910E910F91C0
:104AD00010910120119012911391149115914FF0A2
:104AE00000601690179118914FF0005019901A918C
:104AF0001B911C911D911E911F912091219140F2BB
:104B00002010C2F200000DAAFDF7B2FC18B1FFE7B9
:104B1000FBF75CFDFFE730200A9040F22010C2F264
:104B20000000002101220AABFDF7B0F918B1FFE740
:104B3000FBF74CFDFFE74FF4E1400A9000210B9199
:104B40000C9140F22010C2F2000002220AABFDF7E5
:104B50009DF918B1FFE7FBF739FDFFE747F2B00019
:104B60000A9040F22010C2F20000002104220AAB99
:104B7000FDF78CF918B1FFE7FBF728FDFFE71820D8
:104B80000A9040F22010C2F20000002108220AAB75
:104B9000FDF77CF918B1FFE7FBF718FDFFE70021EF
:104BA000029104200390082004900591069107913A
:104BB0000891099140F22010C2F20000012202ABDC
:104BC000FDF7B4FB18B1FFE7FBF700FDFFE710208E
:104BD00003902020049040F22010C2F20000002137
:104BE000022202ABFDF7A2FB18B1FFE7FBF7EEFCD8
:104BF000FFE740F22010C2F20000FDF77BF828B07A
:104C000080BD000080B58EB005A801902421FBF77F
:104C1000A3FB0199002304930393029340F2FC1039
:104C2000C2F200004FF080420260042242608360C2
:104C30007822C2604FF400720261802282610322F6
:104C40000592022206924FF0010CCDF81CC0089389
:104C50000F2209920A93CDF82CC00C930D92FEF707
:104C600037FE18B1FFE7FBF7B1FCFFE70020029029
:104C7000049040F2FC10C2F2000002A9FEF7A6FD6B
:104C800018B1FFE7FBF7A2FCFFE70EB080BD000004
:104C9000FFE7FEE7FFE7FEE788B007900691059281
:104CA000079800F0070004900498C0F10700052859
:104CB00003D3FFE70420019004E00498C0F107004B
:104CC0000190FFE70198039004980430062803D868
:104CD000FFE70020009003E0049803380090FFE70E
:104CE0000098029006980399012202FA01F1013915
:104CF0000840029B984005999A40013A11400843A8
:104D000008B07047704700007047000080B582B05F
:104D1000009000980138B0F1807F03D3FFE70120B5
:104D2000019019E0009801384EF21401CEF2000112
:104D300008604FF0FF300F2100F04CF94EF21801DF
:104D4000CEF20001002008604EF21002CEF2000206
:104D5000072111600190FFE7019802B080BD0000BB
:104D600080B5FEF72FFDFDF7F9FB00F0D3FA80BD0B
:104D700080B598B00EA800902821FBF7EDFA0098B6
:104D8000002301930D930C930B930A9309930893BB
:104D900007930693059304930393029301220E92C3
:104DA0004FF480310F9110931292022215921691B6
:104DB0004FF4E0111791FDF7A9FF18B1FFE7FBF7DA
:104DC00005FCFFE70F20099002210A9100200B90BB
:104DD0004FF480620C920D9009A8FDF7A9FD18B15F
:104DE000FFE7FBF7F3FBFFE74FF4814002904FF43E
:104DF000807006904FF48050089002A8FDF756FC92
:104E000018B1FFE7FBF7E2FBFFE700F083FB18B008
:104E100080BD00004EF68851CEF20001086840F4D3
:104E2000700008607047000083B002900191029802
:104E300000680090029842F60041C4F201018842E5
:104E40000DD0FFE70298B0F1804F08D0FFE702983D
:104E500040F20041C4F2000188420AD1FFE7009805
:104E600020F070000090019841680098084300907D
:104E7000FFE7029842F60041C4F20101884225D0C2
:104E8000FFE70298B0F1804F20D0FFE7029840F290
:104E90000041C4F20001884218D0FFE7029844F2B2
:104EA0000001C4F20101884210D0FFE7029844F2E9
:104EB0000041C4F20101884208D0FFE7029844F69D
:104EC0000001C4F2010188420AD1FFE7009820F4F2
:104ED000407000900198C168009808430090FFE777
:104EE000009820F0800001994969084300900098DB
:104EF00002990860019880680299C8620198006868
:104F000002998862029842F60041C4F20101884287
:104F100018D0FFE7029844F20001C4F20101884270
:104F200010D0FFE7029844F20041C4F20101884228
:104F300008D0FFE7029844F60001C4F2010188425C
:104F400005D1FFE70198006902990863FFE702991C
:104F50000120486103B0704784B003900291019230
:104F6000029800F01F01012088400090009A0399E8
:104F7000086A904308620198029901F01F0100FA43
:104F800001F20399086A1043086204B070470000F8
:104F9000FFE7FEE781B08DF803009DF903000028CC
:104FA0000ED4FFE79DF9031001F01F02012090408D
:104FB0004A094EF20011CEF2000141F82200FFE74B
:104FC00001B070474EF60C50CEF200000068C0F3FE
:104FD0000220704782B08DF8070000919DF907000C
:104FE00000280AD4FFE7009800019DF907104EF24F
:104FF0000042CEF2000288540BE0009800019DF8B8
:10500000071001F00F014EF61452CEF20002885440
:10501000FFE702B07047000083B00290029800F0F2
:10502000070000904EF60C51CEF200010868019086
:1050300001984FF6FF02104001900198009A40EA53
:1050400002200022C0F2FA52104301900198086039
:1050500003B0704780B540F25420C2F200000068EF
:105060002F2807DCFFE740F25421C2F20001302074
:10507000086011E040F25420C2F200000068B0F570
:10508000B44F08DDFFE740F25421C2F200014FF4B3
:10509000B4400860FFE7FFE740F25422C2F200028A
:1050A000106840F2A001C2F20001086040F2A403BF
:1050B000C2F200034FF4E14018601868126810440F
:1050C00040F2A802C2F200021060086800EBD07043
:1050D0004FEA600C40F2AC00C2F20000C0F800C021
:1050E000D1F800C040F22011C2F20001D1F800E076
:1050F000CEF89CC01B68D1F800C0CCF8A430126870
:105100000B68C3F8A82000680968C1F8AC0080BD2E
:1051100080B540F2D000C2F200000221FBF7F4FD9E
:10512000014640F28800C2F20000418040886528B4
:1051300014DBFFE740F28800C2F2000040882F2114
:1051400048434CF6CD41CCF6CC41A0FB0110C00841
:1051500040F24821C2F20001088006E040F24821F6
:10516000C2F2000100200880FFE780BD80B584B056
:1051700040F2B001C2F2000100200860FFE740F2F7
:10518000B000C2F20000006845F24041C0F289015F
:10519000884209D8FFE7FFE740F2B001C2F2000100
:1051A000086801300860EAE740F2B001C2F200018D
:1051B00000200090086040F20040C4F60000012288
:1051C00003921146FCF7DAFA0098039940F25C2248
:1051D000C2F20002117040F29801C2F200010870A0
:1051E00040F29A01C2F20001088040F29C01C2F232
:1051F0000001088040F29001C2F2000141F2707299
:105200000A80098840F2C002C2F20002118040F216
:105210009402C2F200024FF46171116040F2B401D5
:10522000C2F20001086040F2BC01C2F20001086055
:1052300040F2B801C2F20001086040F2FC10C2F274
:1052400000000268142151623C21FEF73FFC0099E6
:1052500040F2D000C2F200000190FBF7BFF90198C4
:10526000FBF77EFD40F22010C2F200000290032105
:10527000FDF79AF802984FF40031FCF767FF039AA4
:105280004FF090400821FCF779FA04B080BD00008F
:1052900040F2FC10C2F200000068416A40F2C8000F
:1052A000C2F200000170007802280EDCFFE740F235
:1052B000C800C2F2000003210170007840F2FC1126
:1052C000C2F2000109684862FFE740F2C800C2F27A
:1052D0000000007822280EDBFFE740F2C800C2F28F
:1052E000000021210170007840F2FC11C2F200019F
:1052F00009684862FFE740F2C800C2F20000007887
:105300004FF49671484340F29001C2F200010880C8
:105310007047000080B584B040F24C20C2F200001B
:1053200001680131016000684BF6A031C0F20D0147
:1053300088423DD3FFE740F24C21C2F200014BF618
:10534000A030C0F20D00086040F25C20C2F2000004
:1053500000220292027040F29000C2F20000008827
:1053600040F2C001C2F2000108804FF090400821D5
:10537000FCF704FA029A40F20040C4F60000012152
:10538000FCF7FCF940F25421C2F200013020086021
:10539000FFF760FE40F22010C2F2000003900321EC
:1053A000FDF734F803984FF40031FCF741FFFFE7B5
:1053B00040F24C20C2F2000000684BF69F31C0F270
:1053C0000D01884200F2A480FFE74FF090404FF4B7
:1053D0008051FCF7BBF940F28C01C2F20001088059
:1053E00040F25C20C2F200000078012817D1FFE7EC
:1053F00040F28C00C2F20000008840B9FFE740F2A2
:105400004A21C2F2000108880130088006E040F21B
:105410004A21C2F2000100200880FFE7FFE740F2C6
:105420004A20C2F200000088052833DBFFE740F283
:105430008E00C2F20000008860BBFFE740F24A2104
:10544000C2F200010520088040F28E01C2F2000184
:105450000120088040F25421C2F20001302008608F
:1054600040F25C21C2F2000100200190087040F27D
:105470009000C2F20000008840F2C001C2F20001B8
:105480000880FFF7E7FD019A4FF090400821FCF7F4
:1054900075F9FFE740F28E00C2F200000088012893
:1054A00008DBFFE740F28E01C2F2000108880130FC
:1054B000088006E040F28E01C2F200010020088060
:1054C000FFE740F28E00C2F20000008841F2AE51C8
:1054D00088421CDBFFE740F28E01C2F2000100208F
:1054E000088040F25C21C2F20001012000900870A7
:1054F00040F25421C2F2000130200860FFF7AAFDFB
:10550000009A4FF090400821FCF738F9FFE7FFE7D9
:1055100004B080BD80B5FDF791FB41F25971CDF229
:10552000B711A0FB0110400BFEF744F90420FEF771
:1055300025F94FF0FF300F210022FDF795F880BDCF
:1055400080B5FFF7E5FD00F065FA40F29800C2F281
:105550000000007800287ED1FFE740F2BC00C2F2D4
:105560000000006843F65F31884235D8FFE740F21B
:10557000B800C2F20000006870BBFFE740F2BC0058
:10558000C2F20000016801310160006843F6603139
:10559000884220D3FFE740F29400C2F20000006886
:1055A000B0F5617F16D1FFE740F29401C2F200012D
:1055B00040F6C410086040F2C001C2F2000143F29C
:1055C000C820088040F2BC01C2F2000143F66030FE
:1055D0000860FFE7FFE7FFE740F2B800C2F2000013
:1055E00000684009182835D8FFE740F2BC00C2F235
:1055F0000000006843F6603188422BD1FFE740F29B
:10560000B800C2F200000168013101600068B0F525
:10561000487F1ED3FFE740F29400C2F2000000680A
:1056200040F6C411884213D1FFE740F29401C2F260
:1056300000014FF46170086040F2B801C2F200014D
:105640000020086040F2BC01C2F200010860FFE7E0
:10565000FFE7FFE7FFE740F25C20C2F200000078BE
:10566000012840F04D81FFE740F24C20C2F20000DB
:1056700000684BF69F31C0F20D01884200F2408174
:10568000FFE740F29800C2F20000007838BBFFE765
:1056900040F25420C2F2000000683B2816DBFFE70E
:1056A00040F25E20C2F20000008840F29401C2F293
:1056B00000010968884209D8FFE740F2C001C2F240
:1056C0000001088800F5C870088007E040F2C001BA
:1056D000C2F20001088814380880FFE762E040F257
:1056E0009800C2F20000007801285AD1FFE740F28A
:1056F000C001C2F200014FF47A70088040F2CC0081
:10570000C2F200000068652807DBFFE740F2CC0129
:10571000C2F2000164200860FFE740F2CC00C2F250
:105720000000006810F1650F08DCFFE740F2CC01D3
:10573000C2F200016FF063000860FFE740F25E20F4
:10574000C2F200000088B0F5617F29DBFFE740F27C
:105750009C00C2F20000018801310180B0F9000014
:10576000B0F5FA4F1BDDFFE740F29C01C2F20001E9
:105770000020088040F29A01C2F20001088040F245
:105780009801C2F20001087040F29000C2F20000DD
:10579000008840F2C001C2F200010880FFE7FFE785
:1057A000FFE7FFE740F29400C2F200000068B0F5A6
:1057B000617F52D1FFE740F24820C2F2000000882A
:1057C00040F29001C2F20001098801F6B831884226
:1057D0002CDBFFE740F25E20C2F200000088B0F54B
:1057E0007A7F23DAFFE740F29A00C2F200000188D4
:1057F00001310180B0F90000B0F5FA4F15DDFFE787
:1058000040F29A01C2F200014FF4FA40088040F2DF
:105810009801C2F200010120087040F2C001C2F2FA
:1058200000014FF47A700880FFE715E040F29A001B
:10583000C2F20000018801390180B0F9000010F5C2
:10584000FA4F08DAFFE740F29A01C2F200014FF482
:1058500003400880FFE7FFE7FFE740F2C000C2F225
:105860000000B0F9000040F24821C2F200010988AE
:10587000411A40F25020C2F200000160006848F274
:105880001F51C5F2EB1150FB01F1081100EBD17271
:1058900040F2CC00C2F200000168114401600068CF
:1058A000B0F5B44F08DDFFE740F2CC01C2F20001D1
:1058B0004FF4B4400860FFE740F2CC00C2F20000B1
:1058C000006810F5B44F0ADAFFE740F2CC01C2F2EB
:1058D00000014AF20060CFF6FF700860FFE740F277
:1058E0005020C2F20000006840F2CC01C2F2000178
:1058F0000968084440F25421C2F20001086006E041
:1059000040F25421C2F2000130200860FFE740F26B
:10591000C000C2F20000B0F9000043F2C921884281
:1059200008DBFFE740F2C001C2F2000143F2C820E9
:105930000880FFE740F2C000C2F20000B0F90000AA
:1059400040F29001C2F20001098888421CDAFFE7A8
:1059500040F29800C2F200000078012808D1FFE769
:1059600040F2C001C2F200014FF47A7008800AE0F0
:1059700040F29000C2F20000008840F2C001C2F282
:1059800000010880FFE7FFE740F25420C2F2000068
:10599000006840F25821C2F200010968411A40F241
:1059A000C400C2F2000001600068B0F5FA7F0DDDAE
:1059B000FFE740F25820C2F20000006800F5FA70DC
:1059C00040F25421C2F200010860FFE7FFF742FBFA
:1059D00040F25420C2F20000006840F25821C2F2A6
:1059E0000001086080BD000080B582B000200190F9
:1059F000FCF7C2FDFFF7BCF9FEF782FFFFF702F9E3
:105A0000FEF7E8FFFEF712FFFFF7B0FBFFE7FFF737
:105A10003FFCFCE780B540F2D000C2F2000001215B
:105A2000FBF772F9014640F28800C2F200000180E3
:105A30000088212815DBFFE740F28800C2F2000051
:105A4000008800EB4000C0004CF6CD41CCF6CC41C4
:105A5000A0FB0110C00840F25E21C2F200010880E4
:105A600006E040F25E21C2F2000100200880FFE75C
:105A700080BDF1EE100A4FF6FF71C0F2C03120EA8E
:105A8000010040F04070E1EE100A70470000000095
:105A900000000000010203040607080902030405D0
:105AA000060708090A0B0C0D0E0F10100102030463
:105AB00005060708090A0B0C0D0E0F10E05A000826
:105AC0000000002028000000C4010008085B000856
:105AD0002800002040080000E0010008000000004D
